{
  "_format": "hh-sol-artifact-1",
  "contractName": "StakeERC20",
  "sourceName": "contracts/StakeERC20.sol",
  "abi": [
    {
      "inputs": [
        {
          "internalType": "contract IERC20",
          "name": "_stakingToken",
          "type": "address"
        },
        {
          "internalType": "uint256",
          "name": "_rewardRatePerSecond",
          "type": "uint256"
        }
      ],
      "stateMutability": "nonpayable",
      "type": "constructor"
    },
    {
      "inputs": [
        {
          "internalType": "address",
          "name": "target",
          "type": "address"
        }
      ],
      "name": "AddressEmptyCode",
      "type": "error"
    },
    {
      "inputs": [
        {
          "internalType": "address",
          "name": "account",
          "type": "address"
        }
      ],
      "name": "AddressInsufficientBalance",
      "type": "error"
    },
    {
      "inputs": [],
      "name": "FailedInnerCall",
      "type": "error"
    },
    {
      "inputs": [
        {
          "internalType": "address",
          "name": "owner",
          "type": "address"
        }
      ],
      "name": "OwnableInvalidOwner",
      "type": "error"
    },
    {
      "inputs": [
        {
          "internalType": "address",
          "name": "account",
          "type": "address"
        }
      ],
      "name": "OwnableUnauthorizedAccount",
      "type": "error"
    },
    {
      "inputs": [
        {
          "internalType": "address",
          "name": "token",
          "type": "address"
        }
      ],
      "name": "SafeERC20FailedOperation",
      "type": "error"
    },
    {
      "anonymous": false,
      "inputs": [
        {
          "indexed": true,
          "internalType": "address",
          "name": "previousOwner",
          "type": "address"
        },
        {
          "indexed": true,
          "internalType": "address",
          "name": "newOwner",
          "type": "address"
        }
      ],
      "name": "OwnershipTransferred",
      "type": "event"
    },
    {
      "anonymous": false,
      "inputs": [
        {
          "indexed": true,
          "internalType": "address",
          "name": "user",
          "type": "address"
        },
        {
          "indexed": false,
          "internalType": "uint256",
          "name": "reward",
          "type": "uint256"
        }
      ],
      "name": "RewardClaimed",
      "type": "event"
    },
    {
      "anonymous": false,
      "inputs": [
        {
          "indexed": true,
          "internalType": "address",
          "name": "user",
          "type": "address"
        },
        {
          "indexed": false,
          "internalType": "uint256",
          "name": "amount",
          "type": "uint256"
        }
      ],
      "name": "Staked",
      "type": "event"
    },
    {
      "anonymous": false,
      "inputs": [
        {
          "indexed": true,
          "internalType": "address",
          "name": "user",
          "type": "address"
        },
        {
          "indexed": false,
          "internalType": "uint256",
          "name": "amount",
          "type": "uint256"
        }
      ],
      "name": "Unstaked",
      "type": "event"
    },
    {
      "inputs": [],
      "name": "claimReward",
      "outputs": [],
      "stateMutability": "nonpayable",
      "type": "function"
    },
    {
      "inputs": [],
      "name": "emergencyWithdraw",
      "outputs": [],
      "stateMutability": "nonpayable",
      "type": "function"
    },
    {
      "inputs": [],
      "name": "owner",
      "outputs": [
        {
          "internalType": "address",
          "name": "",
          "type": "address"
        }
      ],
      "stateMutability": "view",
      "type": "function"
    },
    {
      "inputs": [],
      "name": "renounceOwnership",
      "outputs": [],
      "stateMutability": "nonpayable",
      "type": "function"
    },
    {
      "inputs": [],
      "name": "rewardRatePerSecond",
      "outputs": [
        {
          "internalType": "uint256",
          "name": "",
          "type": "uint256"
        }
      ],
      "stateMutability": "view",
      "type": "function"
    },
    {
      "inputs": [
        {
          "internalType": "uint256",
          "name": "_newRewardRate",
          "type": "uint256"
        }
      ],
      "name": "setRewardRate",
      "outputs": [],
      "stateMutability": "nonpayable",
      "type": "function"
    },
    {
      "inputs": [
        {
          "internalType": "uint256",
          "name": "_amount",
          "type": "uint256"
        }
      ],
      "name": "stake",
      "outputs": [],
      "stateMutability": "nonpayable",
      "type": "function"
    },
    {
      "inputs": [
        {
          "internalType": "address",
          "name": "",
          "type": "address"
        }
      ],
      "name": "stakes",
      "outputs": [
        {
          "internalType": "uint256",
          "name": "amount",
          "type": "uint256"
        },
        {
          "internalType": "uint256",
          "name": "rewardDebt",
          "type": "uint256"
        },
        {
          "internalType": "uint256",
          "name": "lastStakedTime",
          "type": "uint256"
        }
      ],
      "stateMutability": "view",
      "type": "function"
    },
    {
      "inputs": [],
      "name": "stakingToken",
      "outputs": [
        {
          "internalType": "contract IERC20",
          "name": "",
          "type": "address"
        }
      ],
      "stateMutability": "view",
      "type": "function"
    },
    {
      "inputs": [],
      "name": "totalStaked",
      "outputs": [
        {
          "internalType": "uint256",
          "name": "",
          "type": "uint256"
        }
      ],
      "stateMutability": "view",
      "type": "function"
    },
    {
      "inputs": [
        {
          "internalType": "address",
          "name": "newOwner",
          "type": "address"
        }
      ],
      "name": "transferOwnership",
      "outputs": [],
      "stateMutability": "nonpayable",
      "type": "function"
    },
    {
      "inputs": [
        {
          "internalType": "uint256",
          "name": "_amount",
          "type": "uint256"
        }
      ],
      "name": "unstake",
      "outputs": [],
      "stateMutability": "nonpayable",
      "type": "function"
    }
  ],
  "bytecode": "0x60806040523480156200001157600080fd5b50604051620019123803806200191283398181016040528101906200003791906200028c565b33600073ffffffffffffffffffffffffffffffffffffffff168173ffffffffffffffffffffffffffffffffffffffff1603620000ad5760006040517f1e4fbdf7000000000000000000000000000000000000000000000000000000008152600401620000a49190620002e4565b60405180910390fd5b620000be816200010f60201b60201c565b5081600160006101000a81548173ffffffffffffffffffffffffffffffffffffffff021916908373ffffffffffffffffffffffffffffffffffffffff16021790555080600281905550505062000301565b60008060009054906101000a900473ffffffffffffffffffffffffffffffffffffffff169050816000806101000a81548173ffffffffffffffffffffffffffffffffffffffff021916908373ffffffffffffffffffffffffffffffffffffffff1602179055508173ffffffffffffffffffffffffffffffffffffffff168173ffffffffffffffffffffffffffffffffffffffff167f8be0079c531659141344cd1fd0a4f28419497f9722a3daafe3b4186f6b6457e060405160405180910390a35050565b600080fd5b600073ffffffffffffffffffffffffffffffffffffffff82169050919050565b60006200020582620001d8565b9050919050565b60006200021982620001f8565b9050919050565b6200022b816200020c565b81146200023757600080fd5b50565b6000815190506200024b8162000220565b92915050565b6000819050919050565b620002668162000251565b81146200027257600080fd5b50565b60008151905062000286816200025b565b92915050565b60008060408385031215620002a657620002a5620001d3565b5b6000620002b6858286016200023a565b9250506020620002c98582860162000275565b9150509250929050565b620002de81620001f8565b82525050565b6000602082019050620002fb6000830184620002d3565b92915050565b61160180620003116000396000f3fe608060405234801561001057600080fd5b50600436106100b45760003560e01c80638da5cb5b116100715780638da5cb5b1461016b5780639e447fc614610189578063a694fc3a146101a5578063b88a802f146101c1578063db2e21bc146101cb578063f2fde38b146101d5576100b4565b806316934fc4146100b95780632e17de78146100eb5780635d773b2c14610107578063715018a61461012557806372f702f31461012f578063817b1cd21461014d575b600080fd5b6100d360048036038101906100ce9190610fad565b6101f1565b6040516100e293929190610ff3565b60405180910390f35b61010560048036038101906101009190611056565b61021b565b005b61010f6103fc565b60405161011c9190611083565b60405180910390f35b61012d610402565b005b610137610416565b60405161014491906110fd565b60405180910390f35b61015561043c565b6040516101629190611083565b60405180910390f35b610173610442565b6040516101809190611127565b60405180910390f35b6101a3600480360381019061019e9190611056565b61046b565b005b6101bf60048036038101906101ba9190611056565b61047d565b005b6101c9610622565b005b6101d361079b565b005b6101ef60048036038101906101ea9190610fad565b610894565b005b60046020528060005260406000206000915090508060000154908060010154908060020154905083565b6000811161025e576040517f08c379a00000000000000000000000000000000000000000000000000000000081526004016102559061119f565b60405180910390fd5b80600460003373ffffffffffffffffffffffffffffffffffffffff1673ffffffffffffffffffffffffffffffffffffffff1681526020019081526020016000206000015410156102e3576040517f08c379a00000000000000000000000000000000000000000000000000000000081526004016102da9061120b565b60405180910390fd5b6102ec3361091a565b80600460003373ffffffffffffffffffffffffffffffffffffffff1673ffffffffffffffffffffffffffffffffffffffff168152602001908152602001600020600001600082825461033e919061125a565b925050819055508060036000828254610357919061125a565b925050819055506103ab3382600160009054906101000a900473ffffffffffffffffffffffffffffffffffffffff1673ffffffffffffffffffffffffffffffffffffffff16610a179092919063ffffffff16565b3373ffffffffffffffffffffffffffffffffffffffff167f0f5bb82176feb1b5e747e28471aa92156a04d9f3ab9f45f28e2d704232b93f75826040516103f19190611083565b60405180910390a250565b60025481565b61040a610a96565b6104146000610b1d565b565b600160009054906101000a900473ffffffffffffffffffffffffffffffffffffffff1681565b60035481565b60008060009054906101000a900473ffffffffffffffffffffffffffffffffffffffff16905090565b610473610a96565b8060028190555050565b600081116104c0576040517f08c379a00000000000000000000000000000000000000000000000000000000081526004016104b7906112da565b60405180910390fd5b6104c93361091a565b610518333083600160009054906101000a900473ffffffffffffffffffffffffffffffffffffffff1673ffffffffffffffffffffffffffffffffffffffff16610be1909392919063ffffffff16565b80600460003373ffffffffffffffffffffffffffffffffffffffff1673ffffffffffffffffffffffffffffffffffffffff168152602001908152602001600020600001600082825461056a91906112fa565b9250508190555042600460003373ffffffffffffffffffffffffffffffffffffffff1673ffffffffffffffffffffffffffffffffffffffff1681526020019081526020016000206002018190555080600360008282546105ca91906112fa565b925050819055503373ffffffffffffffffffffffffffffffffffffffff167f9e71bc8eea02a63969f509818f2dafb9254532904319f9dbda79b67bd34a5f3d826040516106179190611083565b60405180910390a250565b61062b3361091a565b6000600460003373ffffffffffffffffffffffffffffffffffffffff1673ffffffffffffffffffffffffffffffffffffffff168152602001908152602001600020600101549050600081116106b5576040517f08c379a00000000000000000000000000000000000000000000000000000000081526004016106ac9061137a565b60405180910390fd5b6000600460003373ffffffffffffffffffffffffffffffffffffffff1673ffffffffffffffffffffffffffffffffffffffff1681526020019081526020016000206001018190555061074a3382600160009054906101000a900473ffffffffffffffffffffffffffffffffffffffff1673ffffffffffffffffffffffffffffffffffffffff16610a179092919063ffffffff16565b3373ffffffffffffffffffffffffffffffffffffffff167f106f923f993c2149d49b4255ff723acafa1f2d94393f561d3eda32ae348f7241826040516107909190611083565b60405180910390a250565b6107a3610a96565b6108926107ae610442565b600160009054906101000a900473ffffffffffffffffffffffffffffffffffffffff1673ffffffffffffffffffffffffffffffffffffffff166370a08231306040518263ffffffff1660e01b81526004016108099190611127565b602060405180830381865afa158015610826573d6000803e3d6000fd5b505050506040513d601f19601f8201168201806040525081019061084a91906113af565b600160009054906101000a900473ffffffffffffffffffffffffffffffffffffffff1673ffffffffffffffffffffffffffffffffffffffff16610a179092919063ffffffff16565b565b61089c610a96565b600073ffffffffffffffffffffffffffffffffffffffff168173ffffffffffffffffffffffffffffffffffffffff160361090e5760006040517f1e4fbdf70000000000000000000000000000000000000000000000000000000081526004016109059190611127565b60405180910390fd5b61091781610b1d565b50565b6000600460008373ffffffffffffffffffffffffffffffffffffffff1673ffffffffffffffffffffffffffffffffffffffff1681526020019081526020016000206000015411156109cd57600061097082610c63565b905080600460008473ffffffffffffffffffffffffffffffffffffffff1673ffffffffffffffffffffffffffffffffffffffff16815260200190815260200160002060010160008282546109c491906112fa565b92505081905550505b42600460008373ffffffffffffffffffffffffffffffffffffffff1673ffffffffffffffffffffffffffffffffffffffff1681526020019081526020016000206002018190555050565b610a91838473ffffffffffffffffffffffffffffffffffffffff1663a9059cbb8585604051602401610a4a9291906113dc565b604051602081830303815290604052915060e01b6020820180517bffffffffffffffffffffffffffffffffffffffffffffffffffffffff8381831617835250505050610cf4565b505050565b610a9e610d8b565b73ffffffffffffffffffffffffffffffffffffffff16610abc610442565b73ffffffffffffffffffffffffffffffffffffffff1614610b1b57610adf610d8b565b6040517f118cdaa7000000000000000000000000000000000000000000000000000000008152600401610b129190611127565b60405180910390fd5b565b60008060009054906101000a900473ffffffffffffffffffffffffffffffffffffffff169050816000806101000a81548173ffffffffffffffffffffffffffffffffffffffff021916908373ffffffffffffffffffffffffffffffffffffffff1602179055508173ffffffffffffffffffffffffffffffffffffffff168173ffffffffffffffffffffffffffffffffffffffff167f8be0079c531659141344cd1fd0a4f28419497f9722a3daafe3b4186f6b6457e060405160405180910390a35050565b610c5d848573ffffffffffffffffffffffffffffffffffffffff166323b872dd868686604051602401610c1693929190611405565b604051602081830303815290604052915060e01b6020820180517bffffffffffffffffffffffffffffffffffffffffffffffffffffffff8381831617835250505050610cf4565b50505050565b600080600460008473ffffffffffffffffffffffffffffffffffffffff1673ffffffffffffffffffffffffffffffffffffffff16815260200190815260200160002090506000816002015442610cb9919061125a565b9050670de0b6b3a7640000826000015460025483610cd7919061143c565b610ce1919061143c565b610ceb91906114ad565b92505050919050565b6000610d1f828473ffffffffffffffffffffffffffffffffffffffff16610d9390919063ffffffff16565b90506000815114158015610d44575080806020019051810190610d429190611516565b155b15610d8657826040517f5274afe7000000000000000000000000000000000000000000000000000000008152600401610d7d9190611127565b60405180910390fd5b505050565b600033905090565b6060610da183836000610da9565b905092915050565b606081471015610df057306040517fcd786059000000000000000000000000000000000000000000000000000000008152600401610de79190611127565b60405180910390fd5b6000808573ffffffffffffffffffffffffffffffffffffffff168486604051610e1991906115b4565b60006040518083038185875af1925050503d8060008114610e56576040519150601f19603f3d011682016040523d82523d6000602084013e610e5b565b606091505b5091509150610e6b868383610e76565b925050509392505050565b606082610e8b57610e8682610f05565b610efd565b60008251148015610eb3575060008473ffffffffffffffffffffffffffffffffffffffff163b145b15610ef557836040517f9996b315000000000000000000000000000000000000000000000000000000008152600401610eec9190611127565b60405180910390fd5b819050610efe565b5b9392505050565b600081511115610f185780518082602001fd5b6040517f1425ea4200000000000000000000000000000000000000000000000000000000815260040160405180910390fd5b600080fd5b600073ffffffffffffffffffffffffffffffffffffffff82169050919050565b6000610f7a82610f4f565b9050919050565b610f8a81610f6f565b8114610f9557600080fd5b50565b600081359050610fa781610f81565b92915050565b600060208284031215610fc357610fc2610f4a565b5b6000610fd184828501610f98565b91505092915050565b6000819050919050565b610fed81610fda565b82525050565b60006060820190506110086000830186610fe4565b6110156020830185610fe4565b6110226040830184610fe4565b949350505050565b61103381610fda565b811461103e57600080fd5b50565b6000813590506110508161102a565b92915050565b60006020828403121561106c5761106b610f4a565b5b600061107a84828501611041565b91505092915050565b60006020820190506110986000830184610fe4565b92915050565b6000819050919050565b60006110c36110be6110b984610f4f565b61109e565b610f4f565b9050919050565b60006110d5826110a8565b9050919050565b60006110e7826110ca565b9050919050565b6110f7816110dc565b82525050565b600060208201905061111260008301846110ee565b92915050565b61112181610f6f565b82525050565b600060208201905061113c6000830184611118565b92915050565b600082825260208201905092915050565b7f43616e6e6f7420756e7374616b65203020746f6b656e73000000000000000000600082015250565b6000611189601783611142565b915061119482611153565b602082019050919050565b600060208201905081810360008301526111b88161117c565b9050919050565b7f496e73756666696369656e74207374616b65642062616c616e63650000000000600082015250565b60006111f5601b83611142565b9150611200826111bf565b602082019050919050565b60006020820190508181036000830152611224816111e8565b9050919050565b7f4e487b7100000000000000000000000000000000000000000000000000000000600052601160045260246000fd5b600061126582610fda565b915061127083610fda565b92508282039050818111156112885761128761122b565b5b92915050565b7f43616e6e6f74207374616b65203020746f6b656e730000000000000000000000600082015250565b60006112c4601583611142565b91506112cf8261128e565b602082019050919050565b600060208201905081810360008301526112f3816112b7565b9050919050565b600061130582610fda565b915061131083610fda565b92508282019050808211156113285761132761122b565b5b92915050565b7f4e6f2072657761726420746f20636c61696d0000000000000000000000000000600082015250565b6000611364601283611142565b915061136f8261132e565b602082019050919050565b6000602082019050818103600083015261139381611357565b9050919050565b6000815190506113a98161102a565b92915050565b6000602082840312156113c5576113c4610f4a565b5b60006113d38482850161139a565b91505092915050565b60006040820190506113f16000830185611118565b6113fe6020830184610fe4565b9392505050565b600060608201905061141a6000830186611118565b6114276020830185611118565b6114346040830184610fe4565b949350505050565b600061144782610fda565b915061145283610fda565b925082820261146081610fda565b915082820484148315176114775761147661122b565b5b5092915050565b7f4e487b7100000000000000000000000000000000000000000000000000000000600052601260045260246000fd5b60006114b882610fda565b91506114c383610fda565b9250826114d3576114d261147e565b5b828204905092915050565b60008115159050919050565b6114f3816114de565b81146114fe57600080fd5b50565b600081519050611510816114ea565b92915050565b60006020828403121561152c5761152b610f4a565b5b600061153a84828501611501565b91505092915050565b600081519050919050565b600081905092915050565b60005b8381101561157757808201518184015260208101905061155c565b60008484015250505050565b600061158e82611543565b611598818561154e565b93506115a8818560208601611559565b80840191505092915050565b60006115c08284611583565b91508190509291505056fea26469706673582212205cb5d65087a1656e30129ebde54d2ce5ddf89e79d777f125a94b9644799aaa4264736f6c63430008180033",
  "linkReferences": {},
  "deployedLinkReferences": {}
}